{
  "contractName": "ServiceLevelAgreement",
  "abi": [
    {
      "constant": false,
      "inputs": [],
      "name": "reportInfraction",
      "outputs": [],
      "payable": false,
      "stateMutability": "nonpayable",
      "type": "function"
    },
    {
      "constant": false,
      "inputs": [
        {
          "name": "_provider",
          "type": "address"
        }
      ],
      "name": "registerProvider",
      "outputs": [],
      "payable": false,
      "stateMutability": "nonpayable",
      "type": "function"
    },
    {
      "constant": false,
      "inputs": [
        {
          "name": "_transactions",
          "type": "uint256"
        }
      ],
      "name": "transaction",
      "outputs": [
        {
          "name": "",
          "type": "bool"
        }
      ],
      "payable": false,
      "stateMutability": "nonpayable",
      "type": "function"
    },
    {
      "constant": false,
      "inputs": [
        {
          "name": "_consumer",
          "type": "address"
        },
        {
          "name": "_endTime",
          "type": "uint256"
        }
      ],
      "name": "payValue",
      "outputs": [
        {
          "name": "",
          "type": "bool"
        }
      ],
      "payable": true,
      "stateMutability": "payable",
      "type": "function"
    },
    {
      "inputs": [
        {
          "name": "_consumer",
          "type": "address"
        },
        {
          "name": "_endTime",
          "type": "uint256"
        }
      ],
      "payable": false,
      "stateMutability": "nonpayable",
      "type": "function",
      "constant": false,
      "name": "registerSLA",
      "outputs": []
    },
    {
      "anonymous": false,
      "inputs": [
        {
          "indexed": true,
          "name": "_provider",
          "type": "address"
        },
        {
          "indexed": true,
          "name": "_consumer",
          "type": "address"
        },
        {
          "indexed": true,
          "name": "_timestamp",
          "type": "uint256"
        }
      ],
      "name": "RegisteredSLA",
      "type": "constructor",
      "payable": false,
      "stateMutability": "nonpayable"
    },
    {
      "anonymous": false,
      "inputs": [
        {
          "indexed": true,
          "name": "_provider",
          "type": "address"
        },
        {
          "indexed": true,
          "name": "_consumer",
          "type": "address"
        },
        {
          "indexed": true,
          "name": "_timestamp",
          "type": "uint256"
        },
        {
          "indexed": true,
          "name": "amount",
          "type": "uint256"
        }
      ],
      "name": "RegisteredSLA",
      "type": "event"
    },
    {
      "anonymous": false,
      "inputs": [
        {
          "indexed": true,
          "name": "_provider",
          "type": "address"
        },
        {
          "indexed": true,
          "name": "_consumer",
          "type": "address"
        },
        {
          "indexed": false,
          "name": "_timestamp",
          "type": "uint256"
        },
        {
          "indexed": true,
          "name": "amount",
          "type": "uint256"
        }
      ],
      "name": "ServiceUnavailability",
      "type": "event"
    },
    {
      "anonymous": false,
      "inputs": [
        {
          "indexed": true,
          "name": "_provider",
          "type": "address"
        },
        {
          "indexed": true,
          "name": "_consumer",
          "type": "address"
        },
        {
          "indexed": false,
          "name": "_timestamp",
          "type": "uint256"
        },
        {
          "indexed": true,
          "name": "amount",
          "type": "uint256"
        }
      ],
      "name": "ThroughputPayout",
      "type": "event"
    }
  ],
  "bytecode": "0x6060604052600060035560006004556000600555341561001e57600080fd5b6107878061002d6000396000f30060606040526004361061006d576000357c0100000000000000000000000000000000000000000000000000000000900463ffffffff1680630a71fdfa146100725780630e2600161461008757806346bd0841146100c05780637649a2f2146100e3578063f8457e8514610105575b600080fd5b341561007d57600080fd5b610085610147565b005b341561009257600080fd5b6100be600480803573ffffffffffffffffffffffffffffffffffffffff16906020019091905050610276565b005b34156100cb57600080fd5b6100e160048080359060200190919050506102b9565b005b6100eb610433565b604051808215151515815260200191505060405180910390f35b341561011057600080fd5b610145600480803573ffffffffffffffffffffffffffffffffffffffff16906020019091908035906020019091905050610614565b005b600160009054906101000a900473ffffffffffffffffffffffffffffffffffffffff1673ffffffffffffffffffffffffffffffffffffffff163373ffffffffffffffffffffffffffffffffffffffff161415156101a357600080fd5b6002544210156101c357600a6005600082825401925050819055506101c8565b610274565b600554600160009054906101000a900473ffffffffffffffffffffffffffffffffffffffff1673ffffffffffffffffffffffffffffffffffffffff166000809054906101000a900473ffffffffffffffffffffffffffffffffffffffff1673ffffffffffffffffffffffffffffffffffffffff167f76454798a8e31b9fcf3dcd7a9655e44a37f9b100237a0a52cb191ebe5c1ed077426040518082815260200191505060405180910390a45b565b806000806101000a81548173ffffffffffffffffffffffffffffffffffffffff021916908373ffffffffffffffffffffffffffffffffffffffff16021790555050565b6000809054906101000a900473ffffffffffffffffffffffffffffffffffffffff1673ffffffffffffffffffffffffffffffffffffffff163373ffffffffffffffffffffffffffffffffffffffff1614151561031457600080fd5b60025442101561037f5780600360008282540192505081905550600560035410151561037a57600a600560035481151561034a57fe5b0402600460008282540192505081905550600560035481151561036957fe5b046003600082825403925050819055505b610384565b610430565b600454600160009054906101000a900473ffffffffffffffffffffffffffffffffffffffff1673ffffffffffffffffffffffffffffffffffffffff166000809054906101000a900473ffffffffffffffffffffffffffffffffffffffff1673ffffffffffffffffffffffffffffffffffffffff167f4108376bb6aaafce62c4c65e1878eadb4c6287b2765cb5af1f8dbb5c054229d5426040518082815260200191505060405180910390a45b50565b600060025442101561060c57600160009054906101000a900473ffffffffffffffffffffffffffffffffffffffff1673ffffffffffffffffffffffffffffffffffffffff163373ffffffffffffffffffffffffffffffffffffffff161415610523576004543411151561051a576000809054906101000a900473ffffffffffffffffffffffffffffffffffffffff1673ffffffffffffffffffffffffffffffffffffffff166108fc349081150290604051600060405180830381858888f19350505050151561050157600080fd5b3460046000828254039250508190555060019050610611565b60009050610611565b6000809054906101000a900473ffffffffffffffffffffffffffffffffffffffff1673ffffffffffffffffffffffffffffffffffffffff163373ffffffffffffffffffffffffffffffffffffffff16141561060757600554341115156105fe57600160009054906101000a900473ffffffffffffffffffffffffffffffffffffffff1673ffffffffffffffffffffffffffffffffffffffff166108fc349081150290604051600060405180830381858888f1935050505015156105e557600080fd5b3460056000828254039250508190555060019050610611565b60009050610611565b600080fd5b600080fd5b90565b6000809054906101000a900473ffffffffffffffffffffffffffffffffffffffff1673ffffffffffffffffffffffffffffffffffffffff163373ffffffffffffffffffffffffffffffffffffffff1614151561066f57600080fd5b81600160006101000a81548173ffffffffffffffffffffffffffffffffffffffff021916908373ffffffffffffffffffffffffffffffffffffffff16021790555080420160028190555042600160009054906101000a900473ffffffffffffffffffffffffffffffffffffffff1673ffffffffffffffffffffffffffffffffffffffff166000809054906101000a900473ffffffffffffffffffffffffffffffffffffffff1673ffffffffffffffffffffffffffffffffffffffff167f8f4d9196fab4a16c3f72603e52716ead45990c1b2027e81ae62c4a864aa9e94760405160405180910390a450505600a165627a7a72305820b8098ea07e565481e9a64a503941fe62b2a4d14aca0e2fe09565c058446317f40029",
  "source": "pragma solidity ^0.4.4;\n\ncontract ServiceLevelAgreement {\n\n  address provider;  //Stores the address of the provider\n\n  address consumer;  //Stores the address of the consumer\n\n  uint endTime;   //Stores the time when the contract will expire\n\n  uint transactions = 0;  //Accumulates the transactions done so far\n\n  uint providerAmount = 0;  //Amount owed to the provider\n\n  uint consumerAmount = 0;  //Amount owed to the consumer\n\n  function ServiceLevelAgreement()\n           public\n  {\n    // The creator of the contract is the provider\n  }\n\n  modifier onlyProvider() {\n    require(msg.sender == provider);\n    _;\n  }\n\n  modifier onlyConsumer() {\n    require(msg.sender == consumer);\n    _;\n  }\n\n  event RegisteredSLA(address indexed _provider, address indexed _consumer, uint indexed _timestamp);\n\n  event ServiceUnavailability(address indexed _provider, address indexed _consumer, uint _timestamp, uint indexed amount);\n\n  event ThroughputPayout(address indexed _provider, address indexed _consumer, uint _timestamp, uint indexed amount);\n\n  //Function to register the provider\n  function registerProvider(address _provider)\n                            public\n  {\n    provider = _provider;\n  }\n\n  //Function to register and legitamize the SLA and an event is trigerred on registration\n  function registerSLA(address _consumer, uint _endTime)\n                       public\n                       onlyProvider\n  {\n    consumer = _consumer;\n    endTime = now + _endTime;\n\n    RegisteredSLA(provider, consumer, now);\n  }\n\n  //Function called by the provider to store the number of transactions completed so far.\n  //The amount accured by the provider too is calculated and an event is triggered\n  function transaction(uint _transactions)\n            public\n            onlyProvider\n  {\n    if(now < endTime)\n    {\n      transactions += _transactions;\n      if(transactions >= 5){\n        providerAmount += transactions/5 * 10;\n        transactions -= transactions/5;\n      }\n    }\n    else\n      return;\n    ThroughputPayout(provider, consumer, now, providerAmount);\n  }\n\n  //Function called by the consumer to report an infraction\n  //The amount accured by the consumer too is calculated and an event is triggered\n  function reportInfraction()\n           public\n           onlyConsumer\n  {\n    if(now < endTime)\n    {\n      consumerAmount += 10;\n    }\n    else\n      return;\n    ServiceUnavailability(provider, consumer, now, consumerAmount);\n  }\n\n  //Function to pay the recepient the required value\n  function payValue()\n           public\n           payable\n           returns(bool)\n  {\n    if(now < endTime)\n    {\n      if(msg.sender == consumer){\n        if(msg.value <= providerAmount){\n          if(!provider.send(msg.value)) revert();\n          providerAmount -= msg.value;\n          return true;\n        }\n        else\n          return false;\n      }\n      else if(msg.sender == provider){\n        if(msg.value <= consumerAmount){\n          if(!consumer.send(msg.value)) revert();\n          consumerAmount -= msg.value;\n          return true;\n        }\n        else\n          return false;\n      }\n      else\n        revert();\n    }\n    else\n      revert();\n  }\n\n}\n",
  "sourcePath": "/home/kiran/SmartSLA/Smart-Contract-SLA/contracts/ServiceLevelAgreement.sol",
  "compiler": {
    "name": "solc",
    "version": "0.4.18+commit.9cf6e910.Emscripten.clang"
  },
  "schemaVersion": "1.0.1",
  "updatedAt": "2017-12-19T11:35:31.505Z"
}